:1000000000800020055900003159000031590000DE
:1000100031590000315900003159000031590000B8
:1000200031590000315900003159000031590000A8
:100030003159000031590000315900003159000098
:1000400031590000D963000031590000E563000018
:100050002D640000FD630000F163000021640000D6
:1000600025250000D14F0000115800006D520000FE
:100070003159000031590000315900003159000058
:1000800031590000F54F000031590000315900008E
:100090003159000031590000315900003159000038
:1000A0003159000031590000315900000964000045
:1000B00015640000B15600003159000031590000AC
:1000C0008D8000003159000010B5054C237833B9FC
:1000D000044B13B10448AFF300800123237010BD1B
:1000E0009806002000000000D0D6000008B5064B9E
:1000F0001BB106480649AFF300800648036813B1F8
:10010000054B03B1984708BD00000000D0D60000A1
:100110009C0600209006002000000000154B002BDC
:1001200008BF134B9D46A3F5803A00218B460F462E
:100130001348144A121A08F0BFFD0F4B002B00D0D1
:1001400098470E4B002B00D0984700200021040058
:100150000D000D48002802D00C48AFF3008008F0D5
:1001600061FD2000290001F08DFC08F05BFC00BF60
:1001700000000800008000200000000000000000D7
:1001800098060020F41F002000000000000000007E
:1001900010B5002002F0B0FB00B1FEE7054C204690
:1001A00002F062FC00B1FEE76FF07F436360A06085
:1001B00010BD00BFC01D0020F0B589B0044602F09C
:1001C00087FC3E2300934E4B0193002180230A229B
:1001D000204602F0D4FC20464A4902F0C5FE4A4BB4
:1001E0001E781F4616BB4948494D08F0C0FE94F8DA
:1001F00024305843C0F180035B082B6043485223EE
:100200006B6008F0B4FE94F82430584300F180038A
:100210005B08AB6094F825305233EB606FF07F439E
:10022000A3602046294602F077FDA660374808F013
:100230009EFE0546354808F09AFE94F8243033496E
:100240005843C0F18003002252208DE805005B086E
:100250002A46204602F04AFE2E49204602F084FE3D
:100260002D4B1B681B689D682C4BB5FBF3F506F006
:1002700087FD0A2390FBF3F3294902A82A4608F0D8
:100280000FFE3E7816BB02A808F071FE94F82430E9
:100290001F4D5843C0F180035B082B6002A86923FF
:1002A0006B6008F064FE94F82430584300F180033A
:1002B0005B08AB6094F825306933EB606FF07F43E7
:1002C000A3602046294602F027FDA66002A808F098
:1002D0004EFE054602A808F04AFE94F82430584322
:1002E000C0F18003692100228DE806005B0802A9A5
:1002F0002A46204602F0FAFD02F036FB09B0F0BDB6
:10030000DBB7000098C300000C000020E3BC000035
:10031000EC1D002068C000002000002040420F00BB
:10032000BCB500002DE9FF41434D0E460746434949
:10033000284602F019FEB31E95F8244095F8258052
:10034000052B22D8DFE803F01B070E151803002346
:100350008DF8083004E03A4902A808F0A1FDA30096
:10036000002419E002A8374908F09AFD04EB840341
:10037000F6E702A83449F0E702A83449EDE702A8FD
:10038000334908F08DFD6300EAE7324B53F826202D
:10039000137892F8018001242A683FB1178807EB8F
:1003A0004707C3EB5707C7F34F0704E01788C3EBB2
:1003B0005703C3F34F072B685B88013BC8EB030867
:1003C0001FFA88F874B1234B1B4853F826104A785B
:1003D0000B780092D1F8022001923946424602F091
:1003E000CEFB0BE002A808F0C2FDCDF8008002466B
:1003F0000194114802A93B4602F078FD16490E48C7
:1004000002F0B2FD2A680C485388118895F825201F
:100410009A1A4908023A02F011FC2B6895F8252037
:10042000598805481B888A1A033A002102F0CBFB41
:1004300004B0BDE8F08100BFC01D002098C30000DB
:10044000D3B50000D8B50000DEB50000E3B500006C
:10045000E8B500001000002068C00000F7B50D46A8
:100460001146044602F080FD1E4B1F7817BB28463C
:1004700008F07DFD94F824301B4E5843C0F18003F2
:100480005B08336028460223736008F070FD94F81F
:100490002430584300F180035B08B36094F82530A2
:1004A0000233F3606FF07F43A3602046314602F0D1
:1004B00033FCA760284608F05AFD0646284608F097
:1004C00056FD94F824305843C0F1800302210022E5
:1004D0008DE806002046294632465B0802F006FDFC
:1004E00003B0F0BD0C000020EC1D0020F7B5002388
:1004F00083606FF07F430D4643601349064602F068
:1005000033FD2C4605F10C039C421BD2204601F022
:100510007BF80746204601F077F808F028FD631BBA
:100520000233DB0000930023024601933046394634
:10053000062302F0DBFC204600F0BCFE10B90134BB
:10054000E4B2DFE703B0F0BD68C0000070B5224D33
:1005500001236B602B6003681B880026023B8660CA
:10056000AB6090F82530044602332946EB6002F078
:10057000D3FB2368EA681B88314620460132013BE1
:1005800002F021FB2368EA681B88314620460232CC
:10059000013B02F018FB236894F825205B88023B9E
:1005A000EB609B1A013B294620466B6002F0B4FBCE
:1005B00023686A681B8831462046013A013B02F0F5
:1005C00002FB23686A681B8820463146023A013BD9
:1005D000BDE8704002F0F7BAEC1D00200023054A88
:1005E0009C2199540133662BF9D1034B00221A70D8
:1005F000704700BFB40600201A070020054B1A7888
:100600000132D2B2652A88BF00221A701B78024AD2
:10061000D05470471A070020B406002065280DD872
:10062000074B084A1B78984205D9C31ADBB2C3F1BD
:100630006603D05C7047181A105C70470020704742
:100640001A070020B4060020F8B506460D461746E6
:100650000024C4F16500C0B2FFF7E0FF40B200F132
:100660006402042107F1200392FBF1F23046611984
:100670009A1A013402F0E2FA652CEAD1F8BD0000C2
:100680002DE9F04385B00E4602F1210901F1180869
:100690000446154606F1160741464B4602F0CEFACF
:1006A00039466A1D4346204602F08DFA394605F167
:1006B00011024346204602F086FA2368DFF8908054
:1006C0001B883946013B4A46204602F07CFA4146E7
:1006D0000A2202A808F0E4FB02A808F048FC002760
:1006E000AB1C0246009302A933460197204602F054
:1006F000FDFB41466FF0270202A808F0D1FB02A8DB
:1007000008F035FC05F10E0302468DE8880002A9C9
:100710003346204602F0EAFB41466FF0630202A82E
:1007200008F0BEFB02A808F022FC94F82530032153
:1007300011FB035502468DE8A000204602A933466E
:1007400002F0D4FB5FFA89F005B0BDE8F08300BF8A
:10075000EBB500002DE9F04788B0AD4DDFF804831C
:1007600095F82630022B04460F4640F01981D8F840
:1007700000301B689968A74BB1FBF3F203FB12131F
:1007800002A83BB142F21076A349B3FBF6F308F09E
:1007900087FB02E0A14908F083FB02A91522A048CB
:1007A00000F094FD814608F0E2FB0026012302469A
:1007B000494601960097204602F098FB99499A48CD
:1007C00094F82590152200F081FD824608F0CFFBB9
:1007D000B9445FFA89F902465146CDF80090019676
:1007E0000123204602F082FB94F825308F4990487F
:1007F0001522994400F06AFD824608F0B8FB5FFAC2
:1008000089F902465146CDF8009001960123204611
:1008100002F06CFB94F825308649874815229944EC
:1008200000F054FD824608F0A2FB5FFA89F9024607
:10083000CDF80090019651460123204602F056FB68
:1008400094F825307D499944D8F800301B685A68DF
:100850004FF47A73B2FBF3F292B202A808F020FBD5
:1008600002A91522764800F031FD804608F07FFB92
:100870005FFA89F9012302464146CDF800900196BE
:10088000204602F033FBAA8C6E4994F8258092B280
:1008900002A808F005FB02A915226B4800F016FD1E
:1008A000C844814608F063FB5FFA88F8024649466F
:1008B000CDF8008001960123204602F017FB94F842
:1008C0002530984406F05CFA2A8D4FF00A0E00B2EB
:1008D00090FBFEF112B20028B8BF404282EAE273F8
:1008E000A3EBE273009190FBFEF10EFB110093FB72
:1008F000FEFC92FBFEF20EFB1C330190534902A852
:1009000008F0CEFA02A91522514800F0DFFC81461A
:1009100008F02DFB5FFA88F802464946CDF80080C2
:1009200001960123204602F0E1FA94F8253095F86B
:100930002B20444902A8984408F0B2FA02A91522D3
:10094000444800F0C3FC814608F011FB5FFA88F8C8
:100950000246CDF80080019649460123204602F068
:10096000C5FA94F8253095F82A20364902A898440B
:1009700008F096FA02A91522374800F0A7FC0546B0
:1009800008F0F5FA5FFA88F802460196CDF8008083
:1009900020462946012302F0A9FA94F82560B8E020
:1009A00095F82A9095F82BA095F82630012B5FFA40
:1009B00089F95FFA8AFA57D1D8F800301B6899682C
:1009C000144BB1FBF3F203FB121353B11549009121
:1009D00042F2107602A82149B3FBF6F308F060FA60
:1009E00004E002A81E490F4B08F05AFA02A808F0CA
:1009F000BEFA0023024601930097204602A9012374
:100A000002F074FA94F825603E44F6B22DE000BF7F
:100A1000741E002040420F00F0B50000FBB500003E
:100A200001B6000017B600000CB600002CB600009E
:100A300020B600003CB6000031B6000044B600000D
:100A40004AB6000057B600005AB6000066B600006D
:100A500077B600007EB6000089B6000094B60000AC
:100A6000A5B60000200000200E46D8F80020AB8C70
:100A7000126851684FF47A72B1FBF2F292B22849CF
:100A80009BB202A808F00CFA02A808F070FA002342
:100A90000246009601932046012302A902F026FA9D
:100AA00094F825301E4495F82630F6B243B906F086
:100AB00067F90A2390FBF3F31A491B4A02A803E0E3
:100AC0001A49194A1A4B02A808F0EAF902A808F0D4
:100AD0004EFA00250246009602A901230195204600
:100AE00002F004FA94F82530124952461E4402A836
:100AF0004B4608F0D5F902A808F039FAF6B20246DA
:100B000000960195204602A9012302F0EFF994F81E
:100B100025804644F6B2F01BC0B208B0BDE8F087AD
:100B2000B4B60000C9B600003CB60000DBB6000059
:100B30002CB60000EAB600002DE9F04F2DED048B35
:100B40008DB0854F97F82690B7F818A05FFA89F90D
:100B5000B9F1020F04460D461FFA8AFA19D17F49EE
:100B6000524606A808F09CF906A915227C4800F018
:100B7000ADFB064608F0FBF900230246019331461F
:100B800000952046012302F0B1F994F825602E4427
:100B9000DAE0B7F81AB0B7F81C8097F82F2097ED75
:100BA000008AD7ED018A1FFA88F84FF6FF7398453F
:100BB0001FFA8BFBD2B206A803D16A4908F070F97C
:100BC00003E0694952B208F06BF906A9152267489B
:100BD00000F07CFB064608F0CAF9002302460193A8
:100BE000314600952046012302F080F994F82560F3
:100BF0002E44F6B2B9F1000F18D15246574906A853
:100C000008F04EF906A91522594800F05FFB82460C
:100C100008F0ADF98DE84002024601232046514616
:100C200002F064F994F825301E44F6B24FF6FF73D3
:100C3000984506A803D14F4908F032F904E04E491F
:100C400042465B4608F02CF906A915224B4800F0F5
:100C50003DFB814608F08BF9002302460096019384
:100C600020460123494602F041F994F825301E44FC
:100C70004FF6FF739845F6B204D106A8404908F034
:100C80000FF952E0F2EE047AF4EEE78AF1EE10FA90
:100C9000B0EE679A08D518EE900A07F07DFB024681
:100CA0000B4603A8374917E097ED017ADFED367A56
:100CB000B4EEE77AF1EE10FA18EE900A06D507F0D6
:100CC0006BFB02460B4603A8304905E007F064FBC6
:100CD0000B462F49024603A808F0E2F8B4EEC98A91
:100CE000F1EE10FA08D518EE100A07F055FBCDE921
:100CF000000106A8274915E0DFED237AB4EEE78A64
:100D0000F1EE10FA18EE100A06D507F045FBCDE912
:100D1000000106A8204905E007F03EFBCDE90001EF
:100D20001E4906A803AA08F0BBF806A808F01FF998
:100D300000230246009601932046012306A902F0F3
:100D4000D5F894F825301E44F6B2701BC0B20DB031
:100D5000BDEC048BBDE8F08F741E002039B7000095
:100D600000B700000DB7000017B7000020B7000063
:100D700026B700002AB7000035B700003DB70000D5
:100D800041B7000059B700000000C84261B7000039
:100D900068B700006EB7000085B700009BB7000081
:100DA00070B50231CC00012122460B46054601F008
:100DB0000AFF012162182846022301F004FFA21C49
:100DC00028460121032301F0FEFEE21C28460121F2
:100DD000042301F0F8FE221D28460121032301F01F
:100DE000F2FE621D28460121022301F0ECFE0121E2
:100DF0002846A21D0B46BDE8704001F0E4BE00008D
:100E000038B50446FFF7A2FB6FF07F43A36020468E
:100E10001549164AFFF722FB236894F825201B8802
:100E20000232013B2046002101F0CDFE00200146A8
:100E3000FFF778FA00F000FC00F0F4FB0146012017
:100E4000FFF770FA00F0FEFB01462046FFF74EFB6D
:100E500000F0F2FB054600F0F5FB291AC9B2204666
:100E6000BDE83840FFF79CBFB0B7000098C3000052
:100E700070B50446FFF76AFB6FF07F43A36020461E
:100E80002049214AFFF7EAFA236894F825201B88B5
:100E90000232013B2046002101F095FE0025002092
:100EA0000621FFF73FFAA56020464FF0FF310F22E1
:100EB000FFF7E6FB182106460F222046FFF7C4FB8A
:100EC00023681B88F21C06362946D2B2013BF6B2D3
:100ED000204601F078FE31462046FFF73BFC2368B0
:100EE0003044C6B21B88721C29462046D2B2013B50
:100EF00001F069FE311D2046C9B2BDE87040FFF720
:100F00001BBE00BFE3BC000098C3000070B50446E0
:100F1000FFF71CFB6FF07F43A36020461A491B4A72
:100F2000FFF79CFA236894F825201B88023220469C
:100F30000021013B01F047FE154B93F83330002BA5
:100F40000CBF042105210120FFF7ECF90026002049
:100F50000621FFF7E7F9A66020461021FFF7FAFB0C
:100F600023681B8800F11402054631462046D2B2A0
:100F7000013B01F028FE05F11C012046C9B2BDE885
:100F80007040FFF7D9BD00BFE3BC000098C300006C
:100F9000741E002070B588B00446FFF7D7FA6FF0D2
:100FA0007F43A360344B1B681B689968334BB1FBCC
:100FB000F3F203FB121332495BB1324842F210756F
:100FC0008DE80300B3FBF5F302A82F4907F068FF93
:100FD00005E0009102A82D492A4B07F061FF204649
:100FE00002A92B4AFFF73AFA236894F825201B88B8
:100FF000023220460021013B01F0E5FD254B93F82C
:101000003330002B0CBF042105210120FFF78AF9A2
:10101000002500200621FFF785F9A56020464FF046
:10102000FF310F22FFF72CFB182106460F22204626
:10103000FFF70AFB23681B88F21C06362946D2B24A
:10104000013BF6B2204601F0BEFD31462046FFF7D7
:1010500081FB23683044C6B21B88721C2946D2B279
:10106000013B204601F0AFFD311D2046C9B2FFF71C
:1010700063FD08B070BD00BF2000002040420F009B
:1010800017B600002CB60000BEB70000CCB70000B9
:1010900068C00000741E0020074B93F82630DBB2B6
:1010A000012B03D006D3022B02D07047FFF7E0BE1E
:1010B000FFF72CBFFFF76EBF741E0020084B93F89C
:1010C00026200132D2B283F8262093F82620022A65
:1010D00000D810B1012283F826200120704700BFFC
:1010E000741E0020084B93F82A200132D2B283F8F4
:1010F0002A2093F82A20202A00D810B1002283F851
:101100002A200120704700BF741E0020084B93F86E
:101110002B200132D2B283F82B2093F82B20202AE7
:1011200000D810B1002283F82B200120704700BFA7
:10113000741E0020084B30B91A780132D2B2072A47
:101140001A7088BF18701A78044B33F81220044BB9
:1011500001201A84704700BF18000020CCBB00009B
:10116000741E0020084B93F82C200132D2B283F871
:101170002C2093F82C20402A00D810B1072283F8A5
:101180002C200120704700BF741E0020064B93F8EE
:10119000322082F0010283F8322010B1002283F85D
:1011A00032200120704700BF741E002000207047CD
:1011B00000207047002070470020704710B5094B91
:1011C0009A8C92B2013292B29A84074A998C126830
:1011D0001268548889B28C4200D908B112889A8466
:1011E000012010BD741E00202000002008B1024B19
:1011F00003600320704700BFCCBC000008B1024B65
:1012000003600420704700BFDDBC000008B508B9CA
:1012100000F070FD012008BD094B93F83020802AB2
:101220001A4600D018B1202382F8303005E093F838
:1012300030205200D2B283F830200120704700BF26
:10124000741E002008B580B900F00AFC084B09485C
:1012500093F82C20084B1A8005F094FDFFF7BEF997
:10126000022000F047FD012008BD002008BD00BF9E
:10127000741E00203C0500203A05002010B50C4CDF
:1012800020B105F07DFD80B220850FE0238D9BB25B
:1012900005339BB22385238D1BB2C82BC4BF4FF6E9
:1012A0006A732385208D00B205F068FD012010BD12
:1012B000741E0020044B03EB00104078D0F10100B5
:1012C00038BF0020704700BFDCBB0000F8B50E46F9
:1012D00017460023DCB25A1CC35C0E4D13B12B55CC
:1012E0001346F7E7304607F042FE381A844204D22C
:1012F00020232B550134E4B2F4E70023E118013335
:10130000F218C9B212F8012C6A54002AF6D1014829
:10131000F8BD00BF281E00201422FFF7D7BF000031
:1013200010B5044690B10A4B93F82620022A08D043
:1013300093F82610074A084B012914BF1146194695
:1013400000E006490648FFF7E7FF2060012010BDD6
:10135000741E0020EEBC0000EFBC0000F2BC0000D8
:10136000F5BC000010B5044620B103480349FFF75F
:10137000D3FF2060072010BDFBBC0000D0BF0000E1
:1013800030B585B00446D0B10E4B1B681B68996818
:101390000D4BB1FBF3F203FB121301A83BB142F278
:1013A00010750A49B3FBF5F307F07AFD02E008492E
:1013B00007F076FD074801A9FFF7AEFF2060072080
:1013C00005B030BD2000002040420F00F0B5000005
:1013D000FBB5000001B6000010B5044620B103487B
:1013E0000349FFF799FF2060072010BD0CB60000ED
:1013F000BCBF000010B5044620B103480349FFF705
:101400008BFF2060072010BD31B60000E4BF000054
:1014100070B586B0054620B305F0B2FC124B1A8DAC
:101420000A2400B290FBF4F112B20028B8BF404287
:1014300082EAE273A3EBE273009190FBF4F104FB08
:10144000110093FBF4F60190084992FBF4F204FBBF
:10145000163302A807F024FD054802A9FFF75CFF38
:101460002860012006B070BD741E002066B6000022
:1014700077B6000013B5044658B1074B07499A8C5C
:1014800001A892B207F00CFD054801A9FFF744FF3F
:101490002060012002B010BD741E002057B600006D
:1014A00007BD000037B50446C0B10E4D2A8C4FF67B
:1014B000FF7392B29A4205D02A8C0B49684692B2C9
:1014C00007F0EEFC2A8C094892B24FF6FF739A425D
:1014D00014BF69460649FFF71FFF2060012003B0D3
:1014E00030BD00BF741E002057B600001EBD0000B6
:1014F00017BD000013B5044658B1074B074993F8D0
:101500002C2001A807F0CCFC054801A9FFF704FF37
:101510002060012002B010BD741E002057B60000EC
:101520002CBD000013B5044658B1074B074993F88A
:101530002A2001A807F0B4FC054801A9FFF7ECFE3A
:101540002060012002B010BD741E002057B60000BC
:1015500089B6000013B5044658B1074B074993F804
:101560002B2001A807F09CFC054801A9FFF7D4FE39
:101570002060012002B010BD741E002057B600008C
:101580004DBD000013B5044658B1074B074993F809
:10159000302001A807F084FC054801A9FFF7BCFE34
:1015A0002060012002B010BD741E002057B600005C
:1015B00056BD000010B5044660B1074B074A93F8CA
:1015C0003210074B074800290CBF11461946FFF798
:1015D000A3FE2060012010BD741E00206ABD000023
:1015E00066BD00006DBD000038B500240134054D16
:1015F000E4B205EB041501206B6898476B78002B6B
:10160000F4D138BDDCBB000007B5054B03EB00107F
:10161000836801A89847019803B05DF804FB00BFF8
:10162000DCBB000008B5034B03EB0010836800200F
:10163000984708BDDCBB0000014B1878704700BF1D
:101640001C070020014B1878704700BF1B070020C3
:1016500008B50378022B04D1012000F04BFB0120D8
:1016600008BD4378022BF7D0054A13880BB9002038
:1016700008BD013B9BB21380002BEDD0F7E700BF04
:101680001A00002008B54378012B07D9184A194BD6
:10169000117803EB01135B782BB301E000230DE01D
:1016A0004B1CDBB2052B137007D9C3F10F03062BBC
:1016B00003D9114B1A7801321A7001230278012ADA
:1016C0000FD9022A0B4B0A4A04D0117803EB0111FF
:1016D000487B60B1127803EB021300205B689847E7
:1016E00008BD184608BD1370034A1370E5E708BD2E
:1016F0001C070020DCBB00001B07002008B5037896
:10170000012B0ED90D4B93F8332082F0010283F8A0
:10171000332093F8332002F0FF0052B100221A83E5
:1017200008BD4378022B06D105F03AFB012000F0FA
:10173000E1FA012008BD002008BD00BF741E002092
:10174000054B002201211A7159711A705A809A7240
:10175000D9729A711A8170471E070020024B1860D7
:10176000024B00201A60704734070020A81E00209A
:1017700070477047044A01231370044A92F83220DC
:101780000AB1034A13707047AE1E0020741E002079
:10179000AC1E002010B510280FD1084CA08CC0B290
:1017A00005F043FB628C4FF6FF7392B29A4204D06D
:1017B000638C9BB201339BB2638410BD741E002006
:1017C00070477047052382889A4209D913F0010FA8
:1017D00002680CBFAA215521D1540133DBB2F2E7D4
:1017E000704700000C4B0D4A03EA5003C31A02EA8B
:1017F00090001B1A03EBD30323F0635323F40E135F
:1018000023F4636323F008033F20B3FBF0F0C0EB45
:101810008010181A704700BFDBB66DDB499224496F
:1018200070B5174A92F8313092F830108842DBB226
:101830000CD392F83030DBB2590906D001314FF0A9
:10184000FF3042F82100203BF5E770BDA0B15909F7
:10185000023103F01F0452F82150012606FA04F465
:101860002C4342F82140334492F83010DBB28B42D3
:1018700028BF00230138E9E782F8313070BD00BF8E
:10188000741E002030B50D4B93F83120D2B25109AF
:10189000023102F01F0053F82140012505FA00F043
:1018A00024EA000043F821002A4493F83010D2B211
:1018B0008A4228BF002283F8312030BD741E0020E8
:1018C000034B00225A611A61DA609A60704700BFC8
:1018D000741E002038B500231C46094A92F83010C7
:1018E0005D1CDBB2B3EB511F08D2023352F8230068
:1018F000FFF778FF2044C4B22B46EEE7204638BD00
:10190000741E0020F8B503F0C5FF0546002800F05E
:1019100097804C4C94F83330002B00F09180A08CD1
:10192000C0B205F082FA94F82B302A7B9A4240F03C
:10193000878094F82A306A7B9A4240F08180A28B9B
:10194000414E4FF6FF7392B29A426B8903D0628B7D
:1019500092B2934209D8013B9BB20027A783E3834D
:10196000FEF73CFEFFF7ACFF3760A18B354B89B229
:101970004FF6FF72914204D09A8B92B2013292B22A
:101980009A83E38B6A899BB2D31A9BB263836B7988
:1019900084F82F30628B336892B2D21A012A06D9AA
:1019A000284A528B92B2D01A0138FFF739FFFFF75D
:1019B00069FF638B254A9BB23360907894F82F308F
:1019C00041B25BB2994205DC92F900008342B8BF94
:1019D0001846C0B2FEF712FEFFF77CFF94F83030D5
:1019E00007EE100A07EE903AF8EEC76A9FED187AF4
:1019F000F8EEE77A66EE876AC6EEA77AC4ED017A5A
:101A0000638BA28B9BB292B26BB19A1A07EE902AAB
:101A1000F8EEE77A67EE877A07EE103AF8EEC76AD3
:101A2000C7EEA67A01E0DFED0B7AC4ED007A94F8F8
:101A3000323013B1084B01221A70084B01221A7080
:101A4000F8BD00BF741E002030070020D8B700008A
:101A50000000C84200000000AC1E0020AD1E0020A7
:101A6000064B00224FF6FF715A83DA8399831A835B
:101A70005A8483F83320FEF7B1BD00BF741E0020E6
:101A80007047000070B58CB003A80021242207F035
:101A900013F94FF4E13304934FF4805301240C22E3
:101AA000474EADF816300021464B039668460A9320
:101AB0008DF8204007F000F94023ADF80030424B8C
:101AC000424D1B68019303F0A7FA042000F06CF963
:101AD0003F48214602F086F82878696802222346AA
:101AE00002F084FF287AE9680222234602F07EFF92
:101AF000FEF74EFBFFF724FEFFF776FD00F0EAF855
:101B0000002001460422234602F070FF00202146F7
:101B10002246234602F06AFF0422002005212346C4
:101B200002F064FFB36F43F00303B367294E03A9C8
:101B3000306801F00DFD03F025FAFFF791FF6846CC
:101B400005F022F905F02CF9234B186805F01AF975
:101B5000224B186805F0E4F8054600B1FEE7204B7B
:101B6000186805F0E7F82146102005F051F91D49E5
:101B7000306813222B4601F0E1FE022002460921C3
:101B8000234602F033FF0520032104222B4602F0F6
:101B90002DFF05204FF0011102F0C6FE03F045FABB
:101BA000401B0428FAD9104B1A682AB903F6E873C7
:101BB000196801B901221A6003F037FA0546EDE70A
:101BC0000000014030000020B8BF000080BD0000D0
:101BD000002508004C0500202C0700201C000020D8
:101BE00020000020A4BF0000A40F144237B5354BDD
:101BF00093F833201C46002A47D093F82600C0B241
:101C0000012802D0022807D056E02F4B1A78002A6C
:101C100052D000221A7050E0198B1A8C89B292B2FD
:101C200091422DD2294B1A78002A45D000221A70F1
:101C300094F82C20ADF80420228B254B009392B20F
:101C4000013292B22283218B4CF2503289B29142FE
:101C500084BF01222283228B1A8094F82A209A7052
:101C600094F82B20DA706846FFF7ACFD684605F063
:101C7000F0F8A08C00210A46C0B205F0ECF802E0B2
:101C8000002283F83320012017E005F08BF808B11B
:101C900005F086F80C4B00251D700C4B01221A70C4
:101CA00094F82620074BD2B2012A05D183F83320BD
:101CB000988CC0B205F0B9F8002000F0010003B024
:101CC00030BD00BF741E0020AD1E0020AE1E0020DF
:101CD0005005002008B5044B044800221A70044B3C
:101CE0005B68984708BD00BF38070020C01D002072
:101CF0009005002002289CBF014B1870704700BF60
:101D00003807002008B5002001460422012302F014
:101D10006DFE01210A460B46002002F067FE0422F8
:101D200001230020052102F061FE054B03225A67C2
:101D30009A6F22F4F85222F01F029A6708BD00BF82
:101D40000000014030B587B0104D0FCD6C460FC478
:101D500095E803000E4B84E8030000241C600D4B43
:101D60000D481C60012101F03DFF0C48012101F0EC
:101D700039FF0B48012101F035FF0A48694603F09D
:101D800069F8FFF7BFFF204607B030BD1CC0000058
:101D90003C070020400700204041050000250800C6
:101DA000002204000000014008B5430701D5FFF7F9
:101DB000C9FF002008BD000010B5084B1A780AB111
:101DC000002010BD0122064C1A7054F8043F002B6D
:101DD000F6D098470028F8D010BD00BF7407002047
:101DE000B005002008B5094A1278034652B1002810
:101DF0000ADC084606492C2202FB031106F038FFD4
:101E0000002008BD034808BD034808BD7407002032
:101E100048070020050011800200118008B50B4B17
:101E20001B7801466BB10A4A1368002B0BDC581C67
:101E3000106008482C2202FB030006F019FF002066
:101E400008BD054808BD054808BD00BF740700204F
:101E50004407002048070020050011800100118080
:101E600010B580290ED1084908480C6804EB02120D
:101E700082424FF0000002D91860054810BD1C6076
:101E80000A6010BD034810BDBC050020750F00207E
:101E90000100118002001180004870470400118089
:101EA00008B500F021F900F0D9F8002008BD70B5A0
:101EB0000D461E460024B44205EB041005D0002157
:101EC000102206F0F9FE0134F5E7002070BD2DE97F
:101ED000F341884603200E21099E00F031F90620C7
:101EE00000F007F9089F0137BFB202AD3B0243F093
:101EF000010325F8023D0221284600F0D7F800240E
:101F0000B44208EB041015D0102100F0CFF8731E76
:101F10009C4208BF4FF6FF7304D07B1C23441B0276
:101F200043F0FF0328460221ADF80630013400F0EB
:101F3000BDF8E5E7022000F0DCF80E21032000F0F8
:101F40000DF9002002B0BDE8F08108B50D21032095
:101F500000F012F9002008BD08B5032019B10F21C7
:101F600000F0EEF802E00F2100F0F8F8002008BDC4
:101F700010B58CB000F0B8F800F070F800F0C8F8B8
:101F8000002213460821022000F0CCF8002213465C
:101F90000621022000F0C6F8002213460E2103207D
:101FA00000F0C0F8002213460F21032000F0BAF819
:101FB00000220D211346032000F0B4F81F48002131
:101FC000802200F09BF8002835D11D4B019301239E
:101FD0008DF814308023029304930393194B0693D6
:101FE000194B0793194B0893194B0993194B8DF80B
:101FF00015000A9301A8184B0B93FFF70FFF044637
:10200000C0B90F21032000F09BF80E21032000F03F
:1020100097F8062000F06DF80CA80423022120F8A0
:102020002E3D00F043F8022000F063F803200E215B
:1020300000F094F820460CB010BD00BF4B1F00000C
:1020400034C00000591F0000611E0000991E0000EE
:10205000CF1E0000AF1E0000A11E000030B587B0EB
:102060000E4D0FCD6C460FC495E8030084E80300C5
:102070000B4C0C48012101F0B5FD0B4B029320469F
:10208000694602F017FF0A236367A36F23F01F233B
:1020900043F00B230020A36707B030BD4CC0000005
:1020A0000004014000320400E067350038B5054601
:1020B0000C4684B1012C0B4801D0EA0705D515F870
:1020C000011B02F03FFF013CF3E735F8021B02F071
:1020D0003EFF023CEDE7034B1B699B06FBD500204E
:1020E00038BD00BF0004014008B501F053FC0020DA
:1020F00008BD08B501F030FD002008BD08B5FFF7A8
:102100002DFB0028014808BF002008BD02001380F5
:1021100008B50348012101F065FD002008BD00BF9E
:102120000025080010B514462AB9C0B2042202F0F6
:102130005DFC204610BD014810BD00BF01001380AA
:10214000C0B230235843044B034401EBC3018B005E
:1021500001221A60002070470CA01042C0B2302348
:102160005843044B034401EBC3018B00002018606B
:10217000704700BF0CA01042012303FA01F1C0B266
:102180003023434303F1804303F52043002099614A
:102190007047000072B6044B1A68511C1CBF013214
:1021A0001A601868704700BF9C100020034B186825
:1021B00018B10138186000B962B670479C10002051
:1021C0002DE9F04F87B001939DF84C3000935F4BA1
:1021D0001B78064688469346002B00F0B180032A00
:1021E00000F2B080109B002B00F0AC80119A002A06
:1021F00000F0A880149BB3F5006F00F3A3800128C2
:1022000003D1129A002A00F09D80514F4FEA0B191A
:102210004F443B7B002B00F09180DFF838A14FEA60
:102220004B1502A8002110220AEB050406F044FD1C
:102230002046B8F1000F19D14146102206F03CFDAE
:102240003AF80520009B40F2FF7161F30E122AF864
:102250000520A27842F01002A270E27842F030022B
:10226000E270EBB9D2B242F0030218E00021102272
:1022700006F022FD3AF80520009B40F2FF7161F361
:102280000E122AF80520A27842F01002A270E2781D
:1022900042F00302E2701BB9D2B242F03002E270A7
:1022A000019B0293149B3AF80520591E61F30E120C
:1022B0002AF80520109B119AA3606260E3789DF8CC
:1022C0005420012E62F38303E37020D1237B214D40
:1022D00043F003032373E368042262F39F03E36084
:1022E00005EB4B1595E80F0005F1100E8EE80F0079
:1022F000EA69129B6B616FF0030161F39F02B8F111
:10230000010FEA610AD1119AAA61636006E0169B87
:1023100023B91EB9A37866F30413A3700C4B169A65
:1023200043F809200025179B7B605846BD607E73EB
:1023300002A9224602F0EAFB284604E0064802E031
:10234000064800E0064807B0BDE8F08FB80F00204F
:10235000780F0020BC0F0020078000F0028000F002
:10236000018000F038B5104B1B780546BBB1C0B1F9
:10237000FFF710FF00230D4A02EB0312147B3CB958
:102380002B60012313731460FFF710FF204638BD44
:102390000133042BEFD1FFF709FF054838BD05488D
:1023A00038BD054838BD00BFB80F0020780F0020A9
:1023B000048000F0028000F0018000F013B5124BA1
:1023C0001868019000238DF80430FFF7E3FE0F4BEF
:1023D0001C781CB1FFF7EAFE0D4812E001221A70CA
:1023E000FFF7E4FE0B4B1C731C7783F82C4083F83B
:1023F0003C4004230DEB03008DF8073002F05AFB3C
:10240000204602B010BD00BF64C00000B80F00201D
:10241000038000F0780F002070B588B00D9C049404
:102420008DE80C000F9C9DF83030039306469DF814
:10243000383006940D460020109C059302900794B6
:10244000014632462B46FFF7BBFE08B070BD0000C8
:1024500008B50A4A12785AB103280BD8084A02EB89
:1024600000131B7B43B1002102F01AFB002008BDC2
:10247000044808BD044808BD044808BDB80F002042
:10248000780F0020028000F0018000F0078000F04B
:1024900008B50A4A12785AB103280BD8084A02EB49
:1024A00000131B7B43B1012102F0FAFA002008BDA2
:1024B000044808BD044808BD044808BDB80F002002
:1024C000780F0020028000F0018000F0078000F00B
:1024D0000E4B1B789BB1032813D891B10C4B03EB27
:1024E00000131B7B7BB10B4B1A6A012303FA00F02C
:1024F000104002D00B7000207047087070470648EB
:102500007047064870470648704700BFB80F002064
:10251000780F002000200E40028000F0018000F0C3
:10252000078000F0F8B5164A136ED76E1F4000D52D
:10253000FEE7144C012600253E4219D0104B9E6642
:1025400054F8043CA3B161682268013161602846F7
:102550009847637A012B0BD150B90B4B03EB451312
:10256000197B1A7F60F3410160F3410219731A77F6
:102570000135042D4FEA460604F11004DCD1F8BD04
:1025800000200E407C0F0020BC0F0020044B1B7865
:102590001BB1044B0360002070470120704700BF4F
:1025A000781000206C10002070B50D4C247884B198
:1025B0000C4C25888618AE420DDC6588CE18AE42DC
:1025C00009DC52B14BB1A080E180228163810020FF
:1025D00070BD012070BD042070BD052070BD00BF1E
:1025E000781000206C1000202DE9F74F1E46564B46
:1025F0001B789146002B00F09F80544B1D68002DE6
:1026000000F09A80524A538914895B1A63431B1A5B
:102610009E4200F293804F4B5C7C002C40F09080F7
:10262000B2F806C09B688C44DB081FFA8CFC01934F
:1026300003FB0C55A246002E7CD0454AB2F804B0EC
:10264000178983443F1A1FFA8BFBB74228BF3746CE
:102650001BF0070FC7EB060603D1630701D1072F55
:1026600030D807EB0B032246C4EB0B01114489B2AF
:1026700099424BD2D01019F8007002F007000741C0
:10268000344890F8108007F00107C80801F00701EE
:10269000B8F1000F01D127B90AE0B8F1010F07D155
:1026A00037B980B2012707FA01F12F5C394306E000
:1026B00080B2012707FA01F12F5C27EA01012954B2
:1026C0000132D1E74FEAD70805EBDB0B09EBE40158
:1026D00042465846CDF800C006F0CAFA4FEAC80193
:1026E0007F1A04EB0102DDF800C00FD0D4100121E5
:1026F000B9401BF8080019F804400139C9B220EAB2
:102700000100214001430BF808103A440AEB0C0089
:1027100044111149019B00F01F000127874051F827
:102720002400384341F824000AF1010A1D44002026
:10273000144680E7304604E0012002E0032000E078
:102740000A2003B0BDE8F08F781000203C10002074
:102750006C10002040100020B01E00202DE9F74F23
:10276000524A0D9F1278002A00F09A80504A15684C
:10277000002D00F095804F4A547C002C40F0928050
:102780009468127C012A4FEAD40C03D0D3F10103E0
:1027900038BF0023484AB2F806B0003318BF0123FF
:1027A0008B44C3F100091FFA8BFB01935FFA89F98F
:1027B0000CFB0B554FF00008002F6FD03E4B1C89CF
:1027C0009A88241ABC4228BF3C461044072CC4EB0C
:1027D000070780B21FD8019B04446BB1A0424AD2C4
:1027E000C20800F00701012606FA01F1AE5C0130D3
:1027F0003143A95480B2F1E7A0423CD2C20800F0B4
:102800000701012606FA01F1AE5C013026EA01015A
:10281000A95480B2F0E7C20810F0070005EB0206E9
:102820000DD001218140AB5C0139C9B229EA010A0E
:1028300019404AEA01010838A954013604445FEA04
:10284000D40A0BD0304649465246CDF800C006F0B7
:1028500033FADDF800C0A4EBCA0456445CB101228F
:1028600002FA04F4013C3278E4B222EA040204EAF7
:1028700009041443347008EB0B0041110F4A012482
:1028800000F01F0004FA00F052F82140044342F81F
:10289000214008F10108654400208DE7384602E038
:1028A000012000E00A2003B0BDE8F08F781000207E
:1028B0003C100020401000206C100020B01E0020B2
:1028C00070B50546094C0A48234686694168C268C6
:1028D000B04723683BB12B60FF211022054806F06A
:1028E000EBF9002070BD0B2070BD00BF3C10002034
:1028F00040100020B01E0020F7B5174E33781BBBE8
:10290000FFF75AFA044608BB144D2946FFF76AFA46
:10291000F8B9134F3846FFF7D3FF0446B0B93B6808
:10292000B3B1104BA989AA881A8059801A8159819C
:102930009880D8804A430123337001920090014669
:1029400002460346FFF70AFF002002E0204600E0AF
:102950000B2003B0F0BD00BF781000204010002015
:102960003C1000206C1000202DE9F3472249234A37
:102970008F6815680023FF0801261C468A46914689
:10298000DAF80C201C4803EB040890451DD215F022
:10299000010201D0013310E073B1194909680094B4
:1029A0000193D0F820C0436807FB0411E04700BB47
:1029B00008F10104034600E001341A19D2060ABFE7
:1029C00059F826506D080136DAE733B90B48002173
:1029D000102206F071F900200BE0094A11680094FA
:1029E0000193056A436807FB04110022A8470028E9
:1029F000ECD002B0BDE8F08740100020B01E0020EF
:102A00003C100020F8B50C46054638B331B30868D1
:102A10008A68904224DA4968E668B14220DA2B6875
:102A20009F88B8421EDBDF88B9421BDB1F899742B3
:102A300018DD5B89B34215DD89B280B20E440244D1
:102A4000731C013292B29BB2FFF7AEFD211D0EC97D
:102A50002668EE6029616A61AB61F8BD0520F8BDAA
:102A60000420F8BD0320F8BD30B587B00446E8B1B6
:102A7000002343606FF07F43836001A8FFF786FD6A
:102A8000B8B9019B23601A885B8802900390013AD1
:102A9000013B204602A904920593FFF7B3FF0546C8
:102AA00030B92046044900F05FFA01E0052000E05B
:102AB000284607B030BD00BF98C3000030B103689E
:102AC00000201A885B880146FFF76EBD052070471D
:102AD00037B5054690B14468FFF7F0FF014670B97D
:102AE0002B68E2B200925A891B8953430193C4F3C5
:102AF0000742C4F30723FFF731FE00E0052003B0CF
:102B000030BD10B5040C0C70010A1170187010BDA6
:102B100073B50E461546044688B10C3000F0DDF85A
:102B200078B1A368DAB2009201220192B0B2C3F385
:102B30000742A9B2C3F30723FFF710FE02E0052006
:102B400000E0012002B070BD73B50E4615461C466C
:102B500080B10C3000F0C1F870B1E3B200930123F2
:102B60000193B0B2A9B2C4F30742C4F30723FFF73D
:102B7000F5FD02E0052000E0012002B070BD2DE966
:102B8000F041069E079F04461D4688B291B29AB254
:102B9000B3B2FFF709FD014698B93A4606FB05F3C3
:102BA000FFF722FD68B9A0896369218A03445A1C92
:102BB000A3690B44013392B29BB2BDE8F041FFF729
:102BC000F3BCBDE8F081F0B585B015461C4680B376
:102BD00003699A422FDB83699A422CDCA14202DD11
:102BE0000B4621461C464769B94224DCC668B442FC
:102BF00021DBB142A8BF0E460DF10E020DF10D0111
:102C00000DF10F038068BC42D4BFC6EB0404C6EBD1
:102C10000704FFF776FF01349DF80F1000919DF82F
:102C20000D209DF80E300194B0B2A9B2FFF796FDC9
:102C300002E0052000E0012005B0F0BD7FB50446AC
:102C4000002845D0C068814244DB6069814241DC94
:102C50009A4202DD10461A460346A669B24239DCA2
:102C60002069834236DB8242B8BF0246B342D4BFFA
:102C7000C2EB0306C2EB0606013688B2B3B291B2CC
:102C80000122FFF791FC054628BBA0680DF10D015C
:102C90000DF10E020DF10F03FFF733FF9DF80F103A
:102CA0009DF80D209DF80E308DE8420028462946FB
:102CB000FFF754FD78B9A0896369218A03445A1C3F
:102CC000A3690B44013392B29BB2FFF76DFC02E0A3
:102CD000052000E0012004B070BD78B1036899427E
:102CE0000BDB8368994208DC43689A4205DBC068C5
:102CF0008242CCBF0020012070470020704703684B
:102D000082689342C4BF02608360C2684368934292
:102D1000C4BF4260C36070472DE9FF4104460D46C1
:102D20000846FFF7ECFF95E88400E168AB68EE68C1
:102D3000A0688A42ACBF9046884662699342B4BF9D
:102D40001D4615462269A3699742B8BF17469E42A1
:102D5000A8BF1E46C8EB0505F61B0DF10D010DF1D0
:102D60000E020DF10F0301350136FFF7CAFEB9B2AD
:102D70001FFA88F0AAB2B3B2FFF716FC0146B8B941
:102D80009DF80F709DF80D209DF80E30009775434B
:102D90000195FFF7E3FC58B9A0896369218A0344D0
:102DA0005A1CA3690B44013392B29BB2FFF7FCFBA0
:102DB00004B0BDE8F0812DE9F04F85B092469DF852
:102DC000382003929B460446002800F08980A1F138
:102DD0002005EBB25E2B00F2858090F82830022BA4
:102DE00005D13A2905D0202905D0A1F13005ADB291
:102DF00002E00A2500E00B25238CAB4272DDE3697B
:102E000001934FF00008464694F825301FFA88F2E7
:102E1000934202925FD994F82230012B05D0022B05
:102E200009D1019B33F8159002E0019A12F8059040
:102E30004FF0000C19E0019A32F82590F8E719F0EC
:102E4000010F19D0029ACDF800C020460AEB070105
:102E50005A44FFF75DFE0128DDF800C043D800B9F1
:102E600001364FEA59090CF1010C94F824301FFA8D
:102E70008CF7BB42E3D811E0039B002BF1D06368D1
:102E8000CDF800C020460AEB07011BFA88F2FFF7D5
:102E90005BFEE0E7039A4AB90137BFB294F82420F9
:102EA00094F8273013449F42F4DB0DE0029A6368E4
:102EB00020460AEB07015A44FFF746FE012812D8C4
:102EC0000028E9D10136E7E794F823301D44ADB27C
:102ED00008F1010898E7D6F1010038BF002002E0B0
:102EE000052000E0022005B0BDE8F08F2DE9F74F86
:102EF00099460C9F9DF834A0044678B371B390F8BE
:102F000028306BB30D4601EB020B4E464FF0000824
:102F10005D451ED015F8011B0A2907D194F825300C
:102F20001F4494F826304E461F44F1E7CDF800A028
:102F3000204632463B46FFF73EFF012811D808B92C
:102F400008F1010894F8242094F8273013441E4413
:102F5000DEE7D8F1010038BF002002E0052000E0E4
:102F6000022003B0BDE8F08F08B548B11C30102234
:102F700011B905F0A1FE03E005F07AFE002008BDBE
:102F8000052008BD72B6044B1A68511C1CBF0132E3
:102F90001A601868704700BF9C100020034B186827
:102FA00018B10138186000B962B670479C10002053
:102FB00038B504460D46FFF7E5FFA3889BB223B959
:102FC0002B60FFF7EBFF064838BD638814229BB2E5
:102FD00002FB034408342C60FFF7E0FF002038BDFB
:102FE0000B7000F00C490D4B0A782AB91A605A6030
:102FF0009A60DA6001220A70002253F8221019B98F
:1030000043F82200002070478142F9D00132042A9F
:10301000F3D10348704700BF791000207C100020D6
:10302000027000F010B586B0012280F82D2090F8D3
:10303000322003460C4612B90268343208E0012AF5
:1030400002D10268283203E0002280F82D200DE032
:1030500001210091616801910021029104490493CA
:1030600003915868D9682368FFF7D6F906B010BDF8
:103070006131000090F83130022B0BD1437E3022B9
:103080005A43054B1344427F02EBC3039B0018686D
:10309000C0B27047002070471CA0104213B5002337
:1030A000194A9C58627F824203D00433102BF7D117
:1030B00027E094F83130022B23D12046FFF7DAFFC6
:1030C000637D2075022B1CD102A9002301F8013D6C
:1030D0006068FFF7FDF9A0B99DF807308BB194F84F
:1030E0002E3073B9237D13B194F82F3033B1002300
:1030F00084F82F306068FFF7CBF902E06068FFF7D3
:10310000A7F902B010BD00BF7C10002038B50446FE
:103110000D46FFF737FFA3889BB223B92B60FFF75B
:103120003DFF0E4838BD638814229BB202FB034367
:10313000628808332B6092B2E388013292FBF3F18C
:1031400003FB11239BB26380A3889BB2013B9BB21C
:10315000A380FFF723FF002038BD00BF0B7000F0F5
:1031600073B5906A01A91446FFF722FF019B002561
:103170001D619D60FFF706FF019BDE681EB12046C2
:1031800029460CCBB047A06A01A9FFF7BFFFA06A90
:1031900083889BB23BB101A9FFF70AFF2046019942
:1031A000FFF740FF01E084F82D30FFF7F7FE012024
:1031B00002B070BD38B141B1013A0548B2F5006FB7
:1031C00038BF00207047034870470148704700BF70
:1031D000037000F0027000F010B50446FFF7EEF83F
:1031E0000021201DFFF7BEF8014648B904F1080090
:1031F000FFF7B8F8034B002814BF1846002010BD95
:10320000004810BD0E7000F0F8B5044616460F4693
:10321000FFF7B8FEA388E2889BB29A4205D8002344
:103220003360FFF7BBFE1248F8BD2088142580B23A
:1032300005FB004039462A46083005F019FD238871
:1032400022889BB205FB034592B2E388013292FBD0
:10325000F3F103FB112308359BB235602380A3886B
:103260009BB201339BB2A380FFF798FE0020F8BD0C
:103270000A7000F037B504460D46C07DE17E65B3A7
:103280000422012301F0B2FB0123207E217F0222D0
:1032900001F0ACFB94F83130022B11D1607E617FDC
:1032A0000122002301F0A2FBA07EA17F00230422C3
:1032B00001F09CFB0123617F607E009301932BE072
:1032C000032B3BD1607E617F0122002301F08EFB46
:1032D000A07EA17F042200232EE02A462B4601F087
:1032E00085FB2B46207E217F2A4601F07FFB94F848
:1032F0003130022B14D1607E617F2A462B4601F0CB
:1033000075FBA07EA17F2B462A4601F06FFB0123AF
:103310008DE82800617F607E0A4601F015FB0DE014
:10332000032B0BD1607E617F2A462B4601F05EFBAA
:10333000A07EA17F2A462B4601F058FB002003B057
:1033400030BD70B504460D461646FFF733FF002822
:1033500069D1A26A93889BB21BB194F82E30002BDE
:10336000F8D094F8323043B92268106910F00200A6
:103370001FD10421D16021680AE0012B18D12268F5
:10338000906810F0020014D104215160216807E018
:103390000A699207FCD54A6F42F002024A6708E0C8
:1033A0008A689207FCD54A6D42F002024A6500E045
:1033B0000020012284F8302073B92E44B5422368DE
:1033C00006D01A695206FCD515F8012B5A63F5E7A9
:1033D0001A699506FCD512E0012B01D0002070BDC2
:1033E0002E44B542236806D09A68D106FCD515F85C
:1033F000012B9A62F5E79A681207FCD509E00028CC
:10340000ECD15A6F22F002025A6723680822DA6070
:1034100070BD0028E2D15A6D22F002025A6523687D
:1034200008225A6070BD70BD13B50446E0B102A910
:10343000002301F8013D4068FFF74AF8B0B99DF854
:1034400007309BB194F82E3033B92046FFF712FEB7
:1034500010B96068FEF7FCFF94F82E300133DBB240
:1034600084F82E30002002E0024800E0024802B05A
:1034700010BD00BF027000F0057000F013B50446E7
:1034800000B302A9002301F8013D4068FFF720F8CE
:10349000D0B994F82E30BBB19DF80730A3B194F8A1
:1034A0002E30012B06D12046FFF7E4FD10B96068ED
:1034B000FEF7EEFF94F82E30013BDBB284F82E309D
:1034C000002002E0024800E0024802B010BD00BF48
:1034D000027000F0057000F037B590F83150022D01
:1034E00004461BD1407DA27EA37F302108B1012874
:1034F00007D1164C4A43144403EBC4039B001860E5
:1035000020E01248247D4A43104403EBC0039B0093
:103510000CB91C6016E001221A6013E0012D11D1D4
:10352000037D0BB9112300E013238DF80730FFF75B
:103530007BFF20460DF107012A46FFF702FF2046D8
:10354000FFF79CFF002003B030BD00BF0CA010426D
:10355000F0B587B0924F04460D460FCF6E460FC6AA
:1035600097E8030086E80300002C00F0DF810DB926
:103570008C48DCE120460021342205F09DFB2046EA
:10358000FFF730FD002840F0D2812B7C84F83130E9
:103590002B6823602B68844A84F83200934206D15A
:1035A000824B2362824BE3604FF4402308E0814A60
:1035B0009342DDD1804B2362804BE3604FF4502374
:1035C000AA692361EB6962620026168056809680A4
:1035D00084F82C60A3621E805E809E806B680293DC
:1035E0006B89ADF81030AB89ADF80E30AB7B8DF840
:1035F0000C30EB7B8DF81230714884F82D60052378
:10360000012184F82F608DF80D3000F0EBFA6D4841
:10361000012100F0E7FA206A012100F0E3FA2868AE
:103620008DF80060694601F015FC2B6803225A678B
:10363000996F687A21F4F85121F01F010143287A2B
:1036400041EA00219967236857498B4202D05949C2
:103650008B428DD12B7A052B19D9991FC9B2042918
:1036600010D9A3F10B01C9B205290DD9A3F111019C
:10367000C9B206290AD9183BDBB2072B8CBFFF263B
:10368000052604E0012602E0022600E01646E67563
:103690006B7A042B17D95A1FD2B2042A15D9A3F179
:1036A0000A02D2B2052A12D9A3F11002D2B2062A16
:1036B0000FD9A3F11702D2B2072A0CD91F2B14BFBE
:1036C000FF23002308E0002306E0012304E0022397
:1036D00002E0032300E0052323762B7A002B74D02D
:1036E000012B72D0022B70D0032B6ED0042B6CD028
:1036F000052B6AD0062B3CD0072B3CD0082B3CD0A6
:10370000092B3CD00A2B3CD00B2B5DD00C2B28D0A6
:103710000D2B28D00E2B28D00F2B28D0102B28D0E3
:10372000112B22D0122B22D0132B22D0142B22D0DB
:10373000152B22D0162B22D0172B22D0182B22D0BB
:10374000192B22D01A2B22D01B2B22D01C2B22D09B
:103750001D2B22D01E2B37D01F2B14BFFF23072376
:1037600033E0072331E008232FE009232DE00A236B
:103770002BE00B2329E00C2327E00D2325E00E236B
:1037800023E00F2321E000231FE001231DE002239B
:103790001BE0032319E0042317E0052315E000BF15
:1037A000D8C60000037000F00000014000220400B1
:1037B00001000C00000401400032040001000D0073
:1037C00040410500002508000623E3766B7A002BB4
:1037D00052D0012B52D0022B52D0032B52D0042BAB
:1037E00052D0052B3CD0062B3CD0072B3CD0082BCD
:1037F0003CD0092B3CD00A2B48D00B2B48D00C2BAB
:1038000028D00D2B28D00E2B28D00F2B28D0102BF2
:1038100022D0112B22D0122B22D0132B22D0142BEA
:1038200022D0152B22D0162B22D0172B22D0182BCA
:1038300022D0192B22D01A2B22D01B2B22D01C2BAA
:1038400022D01D2B22D01E2B22D01F2B14BFFF23D2
:1038500000231EE008231CE009231AE00A2318E0D5
:103860000B2316E00C2314E00D2312E00E2310E0CE
:103870000F230EE000230CE001230AE0022308E0FE
:10388000032306E0042304E0052302E0062300E00E
:10389000072323776B7C6376AB7C6377EB7CA37623
:1038A0002B7DA37720460121FFF7E4FC0646002884
:1038B0003DD1FFF767FB2F7C032F10D12B685A6F88
:1038C00042F030025A675A6E42F004025A6695F886
:1038D000211095F8202042EA0122DA670DE0022F3C
:1038E0000BD101F04FFB607F124901F059FBA67527
:1038F000267567752046FFF7EFFD28684FF0FF3308
:1039000083642B7C032B0CBF0521042101F078FA82
:103910002B684FF44062DA60FEF750FD2046FFF757
:103920005BFC0446FFF73AFB204600E0024807B084
:10393000F0BD00BF9D300000027000F0F0B587B010
:1039400004460E4615461F46FFF734FCF0B9104BEF
:10395000A06A019601A96A4602950395049705930A
:10396000FFF752FC90B994F82D307BB9FFF70AFBB2
:10397000A36A9B889BB233B120460099FFF752FBA4
:10398000012384F83030FFF709FB002007B0F0BDB9
:10399000017000F02DE9F04F87B0664A664C106860
:1039A0005168127A03AB03C31A70D4F8B030DD0744
:1039B00005D46248012100F015F9012500E0002539
:1039C0005F4800F097F9032107465D48D4F89060FE
:1039D00000F05CFC5B4800F087F9D4F8F03001900F
:1039E000D80706F0400606D45648012100F0FAF840
:1039F0004FF0010801E04FF0000872B6524A136818
:103A0000591C1CBF01331360504B1C6814F0010497
:103A100093464FF000020FD0D3F800905C6A1A6012
:103A20005A6240F2FF721A62494B4FF00052C3F8DB
:103A300080214FF0010A01E0A146A24600238DF843
:103A40000E308DF80F3003A808238DF8103001F0E8
:103A5000CDF8404B4FF480521A601A6852001A6039
:103A60006AB13A4A906891688842FCD0374A9268B5
:103A700019680139FDD8354989689142EDD01A6835
:103A800052081A601A680921013921D052081FD042
:103A90001868104318602D48D0F808E08446DCF818
:103AA00008008645FBD029488068D3F800E0BEF1C5
:103AB000010EFCD8DFF894E0DEF808E08645E3D09C
:103AC0002448D0F800E02EEA020EC0F800E0DBE760
:103AD000DBF8003023B11C4A013B136003B962B626
:103AE000BAF1000F08D01748019900F0BFFA174B40
:103AF000C3F800905C6202E0504601F071F8B8F142
:103B0000000F03D00F48002100F06CF8032F03D002
:103B10000B48394600F0BAFB26B90120314632463F
:103B200000F036FB1DB10548002100F05BF807B03E
:103B3000BDE8F08FF0C6000000400E400005080010
:103B400005001E00800910009C1000200020044089
:103B500000E100E0C005002003460849002B0CD01E
:103B6000013B88221202003253430A68D80AD20A63
:103B70005043800901D00138FDD87047C0050020AE
:103B80000B4B41F67132196C1A645A68094A0244A7
:103B90000948824294BF4FF080720022586820F09A
:103BA000407002435A6009B100221A64704700BF96
:103BB00000000E407F4573FE7F9FD50008B501F0E1
:103BC000B9FEBDE80840FFF7DBBF0000044BD3F8A7
:103BD0004421D20703D4D3F840211042FBD17047CF
:103BE00000400E4070B5C0F30323013B0D46092B86
:103BF00027D8DFE803F005082626180B0E26111536
:103C00000023104C11E000230F4C0EE001230F4C59
:103C10000BE010230E4C08E04FF480330D4C04E011
:103C200000230D4C01E00D4C0023C0F3043613B10A
:103C30001846FFF7CBFF04F1047406EBC406B60088
:103C4000356070BD00400E40C0400E40E0400E4068
:103C5000E8400E40F0400E4050410E40B0400E4053
:103C6000C0F30313013B062B35D8DFE803F004084B
:103C70000E14181E2700194BD3F8000102E0174B51
:103C8000D3F81401C0F304207047144BD3F800019B
:103C9000C0F300607047114BD3F80C0102E00F4BEA
:103CA000D3F80801C0F3082070470D4B984212D199
:103CB0000A4BD3F8200100F00F0007E0094B9842AF
:103CC00009D1064BD3F8280100F00300012303FAC1
:103CD00000F0013870470020704700BF00400E40E0
:103CE000600612007007140008B5FFF7B9FF013035
:103CF00008BD000000F00F000138052835D8DFE8C6
:103D000000F0030D1834222C1B4BD3F8943003F031
:103D10000703023B022B2AD8184A08E0164BD3F8B7
:103D2000803003F00703013B032B22D8144AD05CF8
:103D30007047114BD3F8843003F00703013B032B8A
:103D400017D8104AF3E70C4BD3F8883003F0070379
:103D5000013B032B0DD80C4AE9E7074B1B6F13F00F
:103D6000010F14BF0820072070470020704705206E
:103D700070470120704700BF00400E40F9C60000A8
:103D8000FCC6000000C7000004C7000010B50446D0
:103D9000FFF7B0FF1B4B9C4209D01B4B9C420AD043
:103DA0001A4B9C420CD11A4BD3F8800006E0184BFA
:103DB000D3F8840002E0164BD3F8880000F0070027
:103DC000013803281CD8DFE800F002060E0ABDE81F
:103DD000104001F0F9BDBDE8104001F0FBBDBDE8A9
:103DE000104001F0F4BD0A4BD3F80031DB0103D5DC
:103DF00001F0C8FD800810BD01F0C4FD400810BDF1
:103E0000002010BD03001A0005001E00020018006B
:103E100000400E4008B500F47810B0F5602F67D070
:103E200017D8B0F5802F32D00AD800285CD0B0F572
:103E3000003F60D101F082FD304BD3F808312BE018
:103E4000B0F5202F2BD0B0F5402F46D0B0F5002F85
:103E500049E0B0F5A01F32D00ED8B0F5801F27D0B2
:103E6000B0F5901F47D12648FFF790FF234BD3F8BA
:103E7000203103F00F032AE0B0F5D01F1DD0B0F5BC
:103E8000F01F15D0B0F5C01F35D11D4811E001F06D
:103E900055FD1A4BD3F80C31C3F3082306E001F0AB
:103EA0004DFD164BD3F81431C3F30423013311E055
:103EB0001448BDE80840FFF769BF1348F9E7124806
:103EC000FFF764FF0D4BD3F8283103F00303012201
:103ED00002FA03F3B0FBF3F008BD0C48FFF70AFF4A
:103EE000072805D0082806D1BDE8084001F026BD06
:103EF000074B186808BD002008BD00BF00400E40F9
:103F00000200180005001E0003001A0006000C0045
:103F1000C405002070B5C0F30313013B0C46072B0A
:103F200000F29380DFE803F004151F2935566E82F6
:103F3000464E474DFFF742FE012333602B60454B51
:103F4000D3F8002122F4F85242EA0424C3F80041D5
:103F500031E0404BD3F8142122F4F85242EA012414
:103F6000C3F8144170BD3B4BD3F8002122F080729E
:103F700042EA0164C3F8004170BD364AD2F80C3100
:103F800023F4FF3323F4807343EA0124C2F80C4185
:103F900070BD2E4E2E4DFFF711FE01232D4A3360CA
:103FA0002B60D2F8083123F4FF3323F4807343EA03
:103FB0000424C2F8084101F0E5FCFFF7E1FD2648C2
:103FC000FFF728FF254B984294BF00200120306066
:103FD000286070BD224B98422BD0224B984200D0D3
:103FE00070BD04204C1CFFF7F1FD1A4BD3F82021C3
:103FF000B4FA84F4C4F11F0422F00F021443C3F88E
:10400000204170BD184B98421FD140204C1CFFF737
:10401000DDFD104BD3F82821B4FA84F4C4F11F0459
:1040200022F003021443C3F8284170BD0C4B9842A0
:104030000BD14FF48020FFF7C9FD064BD3F8302198
:1040400022F00F021443C3F8304170BD4000C84352
:104050006020C84300400E40000508000048E80109
:104060008009100060061200700714000139FFF784
:1040700051BF00000138032842D8DFE800F0022BCE
:10408000111EC1F308011F4B1B68002BFBD11E4AF8
:10409000136A23F4FF7323F001030B431362704789
:1040A00001F07F01194B1B68002BFBD1164B1A69DD
:1040B00022F07F0211431961704701F07F01144B18
:1040C0001B68002BFBD1104B9A6922F07F02114331
:1040D000996170470C4BD3F890205A6A22F0300255
:1040E00042F010025A62C1F3C31303330F2B28BFEF
:1040F0000F2341EA0371074B074A1A60074A116010
:10410000704700BF6828C84300400E406028C8437D
:104110006428C84330400E44FF0700F030400E468C
:104120000F4B1B6813F0300F09D0202904D0302921
:1041300005D021B10B4B04E04FF4000301E04FF434
:104140004003094AD2F8901019409942F9D15B0214
:1041500004D5D2F8A000C0F380207047012070473A
:1041600024400E40FF03C10700400E4002280AD140
:1041700029B1064B4FF48060C3F8A800596612B10C
:104180000220FFF7CDBF0120704700BF00400E4066
:10419000F8B5042875D8DFE800F0086F0F29030090
:1041A000202610240423052524E04FF400764FF444
:1041B0008074082309251DE0002952D0314B596A2B
:1041C00011F0300F09D1596AC9070AD5596A21F08F
:1041D000300141F01001596203E004240223032559
:1041E0000AE0042402230325012106E0012402261B
:1041F00000232546002936D00021224E3466224E67
:104200001E44B6003368002BFCD01AB9BDE8F84054
:1042100000F068B91C4B2B449D002B68002BFCD090
:104220000228F3D10029F1D0164E716A11F0010174
:1042300004D020210122FFF799FF01E0FFF770FF72
:10424000D6F89C70022000210122FFF7A1FF022076
:10425000C7F30A01FFF70EFF34662B68002BFCD072
:10426000D4E708260223074A1666074A1A44920032
:104270001368002BFCD1C9E78026402406230725BC
:10428000B8E7F8BD00400E408004F21010B500F011
:104290000F000138042872D8DFE800F0057641717C
:1042A00003003B4C3CE0023903296FD8DFE801F002
:1042B0000218050F0020042414E0364A012313607D
:1042C00002F5005220320220136004460AE0314B0E
:1042D00001241C6003F50053203303201C6001E01F
:1042E0000120032401210A46FFF752FFFFF766FC75
:1042F000294B2A485C67FFF78DFD294B9842254BD7
:1043000094BF00200120186003F50053203318608B
:1043100000F0E8F801F036FBFFF732FC2FE0214C0B
:104320000139082932D8DFE801F005070E313115CF
:1043300031312800002321E0012100200A46FFF747
:1043400027FF02231AE0012001460246FFF720FF63
:10435000012313E001F016FB114B98420D4B94BF63
:1043600000200120186003F5005320331860A3F5E6
:10437000266301221A60032300E004232360054B17
:104380001B68094B1B6810BD084CC9E710BD00BF76
:1043900088400E404000C84300400E400005080021
:1043A0000048E80184400E406020C84380400E4031
:1043B00010B504461120FFF79DFC002101220220C8
:1043C000FFF7E6FE2378227C002B0CBF00234FF47E
:1043D0008073022A14BF1A4643F001021E4B40F2BA
:1043E0000111196003F1007307211A6003F17E4384
:1043F0000433E27A196003F1007318491A60637A92
:10440000A28843EAC222164B196003F10073E188C7
:104410001A60227AD31CD20142EAC122A17A0F2B60
:1044200028BF0F230A4342EA03730E4A6FF07F61ED
:1044300011600D490B60627B237B0C49120342EA39
:104440000342E37B1A43A37B42EA0312084B196041
:1044500003F100731A6010BD24400E447FF80F0072
:104460002C400E4430400E4430400E46FFF00F000A
:1044700034400E44184B1949DA6C0988C2F3032200
:104480002831013202EB820001EB5101B1FBF0F166
:10449000D86C013920F0EE60072928BF072140F4CD
:1044A000801040EA0161D9640D49B1F9001000297A
:1044B00010DB2831500001EB610100EB5202B1FB2F
:1044C000F2F2196D072A28BF072221F0700141EA94
:1044D00002121A65704700BF00300E409010002095
:1044E0008E100020044B054AD3F890101160D3F8C9
:1044F0009420034B1A80704700400E409410002017
:1045000092100020074B9A6FD207FBD4011C064A79
:1045100018BF012111601A6C22F0030210431864C5
:10452000704700BF00300E40B40AC6432DE9F04F7B
:1045300085B06F4B02919B6B039203F00F03022B2C
:10454000804601D00020D0E0A0F5E163B3F5966F7E
:10455000F8D800242246234614F0FF0508D102991A
:10456000002900F0A680634901914FF0010907E09E
:104570000399002900F09D805F4901914FF00809DF
:10458000B8F5E16F94BF002001205C4940B1002DD7
:1045900040F0958040F6B83C4FF4E166012707E013
:1045A000002D40F097804FF4E16C4FF4966607467B
:1045B0004F4DDFF84CB1ED6C05F0405A47EA0A0563
:1045C0005D4521D008D8012D1BD026D3B5F1805FE1
:1045D0002BD1D1F86C3125E0DFF828B15D4516D03C
:1045E00005D8B5F1005F20D1D1F8703111E0B5F1F7
:1045F000405F15D0DFF810B15D4516D1D1F87831A4
:1046000010E0D1F8743104E0D1F874310AE0D1F847
:104610007831C3F30722DBB207E0D1F86C31F8E759
:10462000D1F870311A0EC3F30743096D334DC9B287
:10463000032907D8D5F87C1110B1C1F3072016E083
:10464000C8B214E04FEA1A7ABAF1020FD5F8800125
:1046500009D0BAF1030F09D0BAF1010F14BFC0B2EB
:10466000C0F3072003E0C0F3074000E0000E0003A2
:1046700010F4702F7FF466AF1D49CD6E25F47045A0
:1046800028436645C866BFF45DAFC6EB0800D11A83
:104690004143C6EB0C0CB1FBFCF61E4496423FF6C0
:1046A00051AF9E42FFF44EAF06FA09F60199374327
:1046B0000F600134022C7FF44FAF012015E0D1F8D8
:1046C000683140F6B83C1A0E4FF4E166C3F3074375
:1046D0000227DAE7D1F868314FF4E16CC3F307221F
:1046E0004FF49666DBB20746CFE705B0BDE8F08F22
:1046F00000300E4064300E405C300E40B081E00F60
:10470000010000100100002001000030194B1A6F59
:10471000D96CC90702F0070206D5012A04D913286B
:1047200019D91438132811E0DB6CDB0706D4012AF1
:1047300004D809280FD90A38092807E00D4BDB6C8B
:1047400013F001030AD0012A07D8272801D808232B
:1047500004E0102302E0042300E00023054A013BAB
:10476000D16C180340EA032321F47F410B43D36447
:10477000FFF780BE00300E40054B1B68054B1A6FDB
:1047800022F0070210431867034B1888FFF7BEBFDB
:104790008009C64300300E408C10002073B5534A88
:1047A00003789363926B02F00F029A42044601D0A1
:1047B000002598E04E4BD3F86C2101321E461ED0E6
:1047C000A3F5BA73043B5A681B681A60494B1A6810
:1047D000043B1B681A60484B1A68043B1B681A604C
:1047E000464B1A68043B1B681A60454B1A68043B29
:1047F0001B681A60434B1A68043B1B681A60E38805
:104800004A2B0BD9B3F5FA7F0AD340F6C312934271
:104810008CBF4FF040534FF0005303E0002301E002
:104820004FF08053314DB4F90C10EA6C22F0405235
:1048300022F001020029A8BF42F001021343EB64F9
:10484000EB6E43F08073EB660420FFF795FF2B6E51
:1048500023F0C0432B66EB6C43F00603EB64F56C6E
:1048600001A8C5F3074500F0DFF9A5F11003DBB29D
:104870000B2B03D905F0FD05512D17D19DF805002F
:10488000012813D19DF80430022B0FD81E490B7854
:1048900063B91E4B154D1A6842F001021A602B6E67
:1048A0001B4A1A401B4B13432B6608701A4B218975
:1048B00019801A4BA2891A80194BA0881880FFF71B
:1048C00025FF012160880A46FFF730FE05460028D3
:1048D0003FF46EAFA27A134B6078003218BF01220A
:1048E0001A60FFF70FFE284602B070BD00300E4080
:1048F000B081E00F4480E00F4C80E00F5480E00F67
:104900005C80E00F6480E00F9810002044300E407F
:10491000000F0EF0B4C0400B901000208E1000204D
:104920008C1000209407C6433023584300F1804088
:1049300000F5204000F1806300F1C0604FF00112EB
:104940001A6001607047000030B507294FF00F056D
:1049500006D88C00A540A0401A4C25601A4D07E0EF
:10496000A1F10804A400A540A040184C2560184DF2
:104970000324072A286001EA040007D89200944023
:1049800000FA02F213480460134C07E0083A920060
:10499000944000FA02F211480460114C2260114A5E
:1049A0000A44920013609DF80C30C2F88030012355
:1049B00003FA01F10C4BC3F824149DF81030C2F82F
:1049C000003330BD00A4004400A4004604A4004409
:1049D00004A4004608A4004408A400460CA4004413
:1049E0000CA400468020851000A00040F0B562B104
:1049F000302404FB00F51E4C2C4401EBC404A4003D
:104A000013B10125256000E023603024444304F104
:104A10008044072904F520440AD867688D000F26D2
:104A2000AE4027EA060602FA05F5354365600CE05C
:104A300001F18045083DA768AD000F26AE4027EA8A
:104A4000060602FA05F53543A56082B930225043C7
:104A50003BB1074B034401EBC3039B0001221A60E7
:104A6000F0BD034A024401EBC20292001360F0BDA4
:104A70000CA0104272B6044B1A68511C1CBF0132C4
:104A80001A601868704700BF9C100020034B18681C
:104A900018B10138186000B962B670479C10002048
:104AA000034B03449B0081F001011960704700BF74
:104AB000A001F11010B5044601211148FFF792F84A
:104AC00062782378120242EA0362A3781A430D4BFC
:104AD0001A6000221A62DA625A634FF00042DA6604
:104AE0004FF0FF329A66084B4FF48072C3F8802172
:104AF000E1784901C9B283F808131A6010BD00BFFC
:104B00000045080000200E4000E100E0F8B50B6809
:104B1000244E0C46012530218540484300F1804059
:104B200000F5622022F00302C0F88030637BC0F8F9
:104B30008830A37AE77A1B0443EA0753277B43EACA
:104B40004753C0F88430C0F89820B566FFF792FF4D
:104B5000F36E227A2B43F366334612B1726B2A430B
:104B60007263627A12B1DA6A2A43DA6222791B68C6
:104B700022B1D243120262F47F42134062790AB139
:104B800043EA0223A2790AB123EA0203E27902B1DD
:104B90001343044A1360044B1D60D563BDE8F8401D
:104BA000FFF774BF00200E4028200E448B784A780F
:104BB0009B0143EA82030A781343CA7843EA02134B
:104BC0000A7943EAC2234A7943EA02338A790430F4
:104BD00043EA42430001014A135070470020044059
:104BE000014B1860704700BF000084428278437810
:104BF000120142EA830203781A43C37842EA43125D
:104C0000037942EA0322437942EA0332837942EA92
:104C1000C332C37942EA0342037A42EA4342014B78
:104C20001A607047002004400B4B59691A6901F063
:104C30000F01C2F3811242EA810282701A6902F006
:104C40003F0242709A69DB6902F0F002C3F303137A
:104C500013430370704700BFD0FF0FE010B50B780F
:104C60000BB90222426000224262CA788C78120498
:104C700042EA04620C7A22438C7942EA8422CC799B
:104C800042EA04224C78002C0CBF0024402422432A
:104C90004C7A002C0CBF0024802422438C7A002CF8
:104CA0000CBF002420242243CC7A002C0CBF00240B
:104CB000102422430C79002C0CBF00244FF4005424
:104CC00022434C79097B002C0CBF00244FF0805408
:104CD000002942EA04020CBF002108210A430260B5
:104CE0000BB10123436010BD10B5537814781B0637
:104CF00043EA846394792343947843EA0443D47861
:104D000043EA0433147943EA8423547943EA0423BD
:104D1000D479002C0CBF00244FF080442343147A34
:104D2000002C0CBF00244FF000542343547A927A95
:104D3000002C0CBF002410240631002A43EA04038F
:104D40000CBF0022042209011343435010BD000090
:104D500070B5044616461D4619B91448FFF75AF8AF
:104D60000146202D0DD001D82DB170BD402D04D0AD
:104D7000602D04D070BD102304E0062302E004235C
:104D800000E008237343490101EB5301B1FBF3F346
:104D9000203B074ADB001A40236823F060032360AE
:104DA00023681D432560626170BD00BF404105005E
:104DB000F8FF7F0070B5064614460B4619B90E4839
:104DC000FFF728F803462246590ED801002303F0C6
:104DD00053FB803841F1FF31020A42EA01621402BA
:104DE0001436064A06F1806306F1C0661440034A91
:104DF0001A60346070BD00BF40410500F8FF7F00BD
:104E0000CB4303F005035B00C360C1607047000043
:104E100040F6AA63C36041F20502002303604260CA
:104E2000094A83604361C3648264084A43679042CD
:104E30008367C36708BF03658365054B984204BF5A
:104E40000023C365704700BFF9FF01000000014067
:104E50000004014038B50C460546FFF7D9FFA37C96
:104E60001BB12B6843F080432B60E37C1BB1237D97
:104E700043F08003AB65228A637B61681343E28958
:104E800013436B60A268237B2846FFF761FFE27D36
:104E9000A37D12051B0702F4E00203F0E043134375
:104EA0002B66637D1BB12B6843F480332B60237822
:104EB000EB6038BD38B50C460546FFF7A9FF238ADD
:104EC000A27B296843F00103002A9BB20CBF002299
:104ED0004FF480620B431343227D2B602B68002A22
:104EE0000CBF00224FF0005213432B60A37C1BB178
:104EF000E37C43F08003AB65237B6168A26843F4E5
:104F000080536B602846FFF755FF637B0BB110237E
:104F1000EB60E27DA37D12051B0702F4E00203F0C3
:104F2000E04313432B66637D1BB12B6843F480334E
:104F30002B602378EB6038BD03691B06FCD5C06984
:104F4000C0B2704703695B06FCD5416370470369D3
:104F50005B06FCD5C163704710B5044674B194FA82
:104F6000A4F00123B0FA80F0834024EA0304044B48
:104F700053F82030002BF1D09847EFE710BD00BF69
:104F8000A0100020054B4FF40032C3F880211A60B6
:104F90004FF40072C3F880211A60704700E100E00E
:104FA00072B6094B1A68B2F1FF3F1CBF01321A609A
:104FB0001B68064A42F8201023B1034A013B1360E4
:104FC00003B962B6704700BF9C100020A0100020FB
:104FD000074BD3F82804D3F81C24104020F42A509F
:104FE00020F02A004004400CC3F82404FFF7B4BFAB
:104FF00000A00040074BD3F82804D3F81C2410402D
:1050000020F4AA4020F055000004000CC3F824044A
:10501000FFF7A2BF00A0004008B500F021F800F0A3
:1050200087FBBDE8084000F0BDBA08B500F018FBEA
:10503000BDE8084000F02CBB82B000EB400000212E
:10504000CDE90001DDE9002312F1FF3043F1FF312A
:10505000CDE9000152EA0301F4D102B0704700002B
:10506000F0B591B04E4B02AA03F108051646186838
:105070005968144603C40833AB422246F7D1186876
:105080009B88A380474B206006AA03F110051746B2
:1050900018685968144603C40833AB422246F7D156
:1050A0001B882380404C0FCC0BAD0FC523682B60B1
:1050B0003046FFF773FB3846FFF77AF90BA800F08C
:1050C00097FF11200421FFF7E1F800210A46032091
:1050D000FFF75EF854F8040F344D6168344C6B46AA
:1050E00003C3684600F018FF012002460146FFF79F
:1050F0004FF830480321FFF7C9F82F480321FFF785
:10510000C5F82E480121FEF76DFD2D480121FEF75F
:1051100069FD2C480121FEF765FD2B480121FEF7B2
:1051200061FD20462949FFF7C5FE0B23636703F1A4
:105130000B23A3670220062104220023FFF756FC5D
:105140000220024607210023FFF750FC022008211D
:1051500004220023FFF74AFC04210A460123002011
:10516000FFF744FC002742F21070FFF765FFAB2108
:1051700020462F60FFF7E6FE01262046FFF7DCFE03
:105180002E601E20FFF758FF2046B9212F60FFF741
:10519000D9FE2046FFF7D0FE2E6011B0F0BD00BF53
:1051A00008C7000016C7000028C70000900114427D
:1051B000000401400200180003001A000005080066
:1051C00040410500002508000032040044C70000EB
:1051D00000207047FEE70020704770B50D46164668
:1051E0000024B44203D000F0D3F8431C05D1002CB6
:1051F00014BF20464FF0FF3070BD28550134F0E752
:1052000070B50E4615460024AC4204DA305D00F05D
:10521000F5F80134F8E7284670BD000010B50F4BD3
:105220001A680AB90E4A1A601A681044EFF3088126
:10523000884210D90B4B1B68986803F007FC0446A2
:10524000094803F094FE084902462046FFF7D8FFBC
:10525000012003F0E7FB1860104610BDE0100020AD
:10526000F81F00204C0600205CC7000038B510482D
:1052700003691B061AD50F4C2568FFF75DFE0E4B20
:1052800058552368013323600C4B1A6801321A60A9
:105290002268082A04BF002222601B68082B05DD53
:1052A000064A002323601360054A136038BD00BF1F
:1052B00000000140F0100020E5100020F810002050
:1052C000F410002030B587B029482A4D0121FEF79F
:1052D00089FC29480121FEF785FC002001460422B3
:1052E0000123FFF783FB002001210A460346FFF755
:1052F0007DFB0FCD6C460FC495E80300042284E8C3
:105300000300012300200521FFF770FB1B481C4C04
:105310000121FEF767FC06A9002501F8185D20466B
:105320006946FFF797FD03236367A36F23F4F853E0
:1053300023F01F03A3670423A364124B4FF40062FE
:10534000C3F88021E16C41F00401E16420461A6059
:105350000521FFF755FD0C4B1B6829469868022272
:105360002B4603F015FD094B01221A7007B030BD22
:105370004041050078C70000002508000022040015
:105380000000014000E100E04C060020ED1000208C
:1053900010B5154B1B780BB9FFF794FF72B6134A83
:1053A0001368591C12491CBF013313600B68002B92
:1053B00010DD104B104C1868205C1C6801341C6018
:1053C0001C68082C04BF00241C600B68013BC0B2A1
:1053D0000B6001E04FF0FF30136823B1034A013B3B
:1053E000136003B962B610BDED1000209C100020C0
:1053F000F8100020F4100020E510002038B50F4B05
:105400001B7804460BB9FFF75DFF0D4B1A781D465C
:105410002AB10A2C03D10B480D21FFF793FD09484F
:105420002146FFF78FFD2B782BB10D2C03D10548BA
:105430000A21FFF787FD204638BD00BFED10002090
:10544000E41000200000014072B6044B1A68511CA1
:105450001CBF01321A601868704700BF9C10002002
:10546000034B186818B10138186000B962B670476C
:105470009C100020F0B5224901F1A00C00234B75CF
:105480000B7D002B37D051E90223044600259D42B5
:1054900008BF944205D2121B63EB050341E90223C6
:1054A00029E0CE7D0EB90E7521E0D1E90067921991
:1054B00043EB0703121B63EB05038C68CD68002CDC
:1054C00041E9022307DD2C44F32CCC600FD90132D3
:1054D00043F1000307E02C1BF32CCC6007D912F139
:1054E000FF3243F1FF3341E90223F43CCC600B6906
:1054F0000BB101234B7528316145BFD1F0BD00BF11
:105500001811002038B5074C0025637F1BB1A36933
:10551000216A284698470135042D04F12804F4D166
:1055200038BD00BF1011002070B51A494FF0FF328E
:1055300001F1A0064FF0FF330C783CB151E907456B
:105540009D4208BF94423CBF22462B462831B142BF
:10555000F2D111490024B3F1FF3F08BFB2F1FF3F80
:105560000C700E4614D00D4908600D4904240C62DD
:1055700000256FF064049D4208BF944238BF224664
:1055800002444A65012333704B6A43F004034B62C3
:1055900070BD00BF2C110020FC100020B4110020B1
:1055A0000020044070B5204B1C78002C3AD1012516
:1055B0001E481D702946FEF715FB1D4E1D48022191
:1055C000FEF764FE032329461B483371FEF70AFBEE
:1055D0003046FFF70BFB28461849FFF7E7FA184B50
:1055E00018485A6A22F4FF6222F007025A6240F217
:1055F000FF721A62144A9C604FF00051C2F8801189
:1056000011605A6A2A435A622146A02203F054FBD1
:105610000E4B1C700E4B1C700E4B1C600E4B1C6016
:105620000E4B1C60002070BDFD100020000508001E
:10563000C805002005001E0080091000D1050020CB
:10564000002004401011002000E100E004110020BF
:10565000FC100020B01100200811002000110020D3
:1056600030B5094B094A1C6890681A680025002368
:105670009D4208BF9442F4D100222346141843F1FE
:1056800000052046294630BD0811002000200440B6
:1056900010B54FF4FA54A0FB042312F5804204FB2A
:1056A000013343F10003D00B40EA434010BD00003A
:1056B0002DE9F041FFF7C8FE184B9E69720720D50F
:1056C000174A9C68012111709046144D154F6B6A62
:1056D00023F004036B623868201AFFF7CBFEFFF754
:1056E00011FF2046FFF720FFAC683B68696DE21AA6
:1056F000CB1A0D49097809B19A42E6D8002388F8F7
:105700000030F30706D5054B01221A62074B1A68D1
:1057100001321A60BDE8F041FFF7A2BE002004404C
:1057200004110020B4110020FC10002008110020FA
:1057300010B588B004A800210D2203F0BDFA0124A1
:105740000B22002101A88DF8104003F0B5FA0223C6
:1057500023488DF80A302146FEF744FA21484FF6D7
:10576000FF73C361002101AAFFF7BEFA00238DF881
:1057700012301C4804A9FFF771FA1B48FEF74AFBD8
:105780009DF81230194AD8400133DBB20A2B106061
:105790008DF81230144602D8154B9842E9D81548B6
:1057A000FEF738FB144B2268B3FBF0F313480021DB
:1057B000E2FB0301124A002302F05EFE114B186067
:1057C000114B00201870074B9A6922F010029A6161
:1057D0000E4B4FF48062C3F880211A6008B010BDF0
:1057E000000204000080014040410500BC1100207F
:1057F00080841E005000020000B0710B20A1070041
:1058000040420F00B8110020C011002000E100E06C
:10581000044BDA68D20604D510225A61024B0122E9
:105820001A70704700800140C011002072B6044B0E
:105830001A68511C1CBF01321A601868704700BFFB
:105840009C100020034B186818B10138186000B98B
:1058500062B670479C10002010B5B0F5807F14D858
:10586000FFF7E4FF00200A4A00EB0023995C19B916
:105870000121D154044604E001300A28F3D14FF04D
:10588000FF34FFF7DFFF204610BD4FF0FF3010BDA3
:10589000C111002010B5431C04460ED00A280CD8B4
:1058A000FFF7C4FF04EB0424054B18191C5D04B179
:1058B000441CFFF7C7FF204610BD002010BD00BFED
:1058C000C111002010B50446FFF7B0FF2046FFF7D6
:1058D000E1FF28B1044B04EB04241A5D013A1A5588
:1058E000BDE81040FFF7AEBFC1110020FFF7B4BF05
:1058F000FFF7E8BF10B50C46FFF7CCFF204410BD02
:1059000070470000064880470649074A074B9A42FD
:10591000BEBF51F8040B42F8040BF8E7FAF7FEFBA0
:10592000B5590000DCD600000000002094060020DD
:10593000FEE700BF0048704700F049020D4AD2F868
:10594000943003F00703032B0AD0042B03D0022B5F
:1059500003D1094B02E0094B00E0094B1B6801E051
:105960004FF40043D2F80001C0F304200130B3FB30
:10597000F0F0704700400E40D8050020DC05002004
:10598000E005002008B5FFF7D9FF054BD3F8083133
:10599000C3F308230133B0FBF3F0024B186008BDDA
:1059A00000400E40C01E0020014B1868704700BF29
:1059B000D8050020034BD3F8882042F47002C3F8C6
:1059C0008820704700ED00E04FF4004070474FF42E
:1059D0007A707047014B1868704700BFDC050020E3
:1059E0001A4B1B4A1B7853B3782828DDD2F80431B0
:1059F00023F45F4323F07D03C2F80431D2F81C3155
:105A000023F45F4323F07D03C2F81C31D2F8041164
:105A10009338052390FBF3F309339B0041F457417E
:105A20001943C2F80411D2F81C1141F457410B4339
:105A3000C2F81C31D2F8943043F0080303E0D2F8E6
:105A4000943023F00803C2F894307047E405002036
:105A500000400840014BB3F902007047C41E00200B
:105A6000124BD3F8002122F00602C3F80021D3F82C
:105A7000002142F00402C3F80021D3F80C2122F0E7
:105A80000702C3F80C21D3F80C2142F00502C3F839
:105A90000C21D3F8082122F0C002C3F80821D3F862
:105AA000082142F08102C3F80821704700400840F5
:105AB000134BD3F8002122F00602C3F80021D3F8DB
:105AC000002142F00202C3F80021D3F80C2122F099
:105AD0000702C3F80C21D3F80C2142F00602C3F8E8
